{
  "contractName": "Dummy",
  "abi": [
    {
      "inputs": [],
      "stateMutability": "nonpayable",
      "type": "constructor"
    },
    {
      "anonymous": false,
      "inputs": [
        {
          "indexed": true,
          "internalType": "address",
          "name": "_owner",
          "type": "address"
        },
        {
          "indexed": true,
          "internalType": "address",
          "name": "_spender",
          "type": "address"
        },
        {
          "indexed": false,
          "internalType": "uint256",
          "name": "_value",
          "type": "uint256"
        }
      ],
      "name": "Approve",
      "type": "event"
    },
    {
      "anonymous": false,
      "inputs": [
        {
          "indexed": true,
          "internalType": "address",
          "name": "_from",
          "type": "address"
        },
        {
          "indexed": true,
          "internalType": "address",
          "name": "_to",
          "type": "address"
        },
        {
          "indexed": false,
          "internalType": "uint256",
          "name": "_value",
          "type": "uint256"
        }
      ],
      "name": "Transfer",
      "type": "event"
    },
    {
      "inputs": [
        {
          "internalType": "address",
          "name": "",
          "type": "address"
        },
        {
          "internalType": "address",
          "name": "",
          "type": "address"
        }
      ],
      "name": "allowance",
      "outputs": [
        {
          "internalType": "uint256",
          "name": "",
          "type": "uint256"
        }
      ],
      "stateMutability": "view",
      "type": "function",
      "constant": true
    },
    {
      "inputs": [
        {
          "internalType": "address",
          "name": "",
          "type": "address"
        }
      ],
      "name": "balance",
      "outputs": [
        {
          "internalType": "uint256",
          "name": "",
          "type": "uint256"
        }
      ],
      "stateMutability": "view",
      "type": "function",
      "constant": true
    },
    {
      "inputs": [],
      "name": "decimal",
      "outputs": [
        {
          "internalType": "uint256",
          "name": "",
          "type": "uint256"
        }
      ],
      "stateMutability": "view",
      "type": "function",
      "constant": true
    },
    {
      "inputs": [],
      "name": "name",
      "outputs": [
        {
          "internalType": "string",
          "name": "",
          "type": "string"
        }
      ],
      "stateMutability": "view",
      "type": "function",
      "constant": true
    },
    {
      "inputs": [],
      "name": "symbol",
      "outputs": [
        {
          "internalType": "string",
          "name": "",
          "type": "string"
        }
      ],
      "stateMutability": "view",
      "type": "function",
      "constant": true
    },
    {
      "inputs": [],
      "name": "totalsupply",
      "outputs": [
        {
          "internalType": "uint256",
          "name": "",
          "type": "uint256"
        }
      ],
      "stateMutability": "view",
      "type": "function",
      "constant": true
    },
    {
      "inputs": [
        {
          "internalType": "address",
          "name": "_to",
          "type": "address"
        },
        {
          "internalType": "uint256",
          "name": "_value",
          "type": "uint256"
        }
      ],
      "name": "transfer",
      "outputs": [
        {
          "internalType": "bool",
          "name": "success",
          "type": "bool"
        }
      ],
      "stateMutability": "nonpayable",
      "type": "function"
    },
    {
      "inputs": [
        {
          "internalType": "address",
          "name": "_spender",
          "type": "address"
        },
        {
          "internalType": "uint256",
          "name": "_value",
          "type": "uint256"
        }
      ],
      "name": "approve",
      "outputs": [
        {
          "internalType": "bool",
          "name": "success",
          "type": "bool"
        }
      ],
      "stateMutability": "nonpayable",
      "type": "function"
    },
    {
      "inputs": [
        {
          "internalType": "address",
          "name": "_from",
          "type": "address"
        },
        {
          "internalType": "address",
          "name": "_to",
          "type": "address"
        },
        {
          "internalType": "uint256",
          "name": "_value",
          "type": "uint256"
        }
      ],
      "name": "transferfrom",
      "outputs": [
        {
          "internalType": "bool",
          "name": "success",
          "type": "bool"
        }
      ],
      "stateMutability": "nonpayable",
      "type": "function"
    }
  ],
  "bytecode": "0x60806040526040518060400160405280600b81526020017f44756d6d7920546f6b656e0000000000000000000000000000000000000000008152505f90816200004991906200035f565b506040518060400160405280600981526020017f64756d20746f6b656e0000000000000000000000000000000000000000000000815250600190816200009091906200035f565b5069d3c21bcecceda10000006002556012600355348015620000b0575f80fd5b5060025460045f3373ffffffffffffffffffffffffffffffffffffffff1673ffffffffffffffffffffffffffffffffffffffff1681526020019081526020015f208190555062000443565b5f81519050919050565b7f4e487b71000000000000000000000000000000000000000000000000000000005f52604160045260245ffd5b7f4e487b71000000000000000000000000000000000000000000000000000000005f52602260045260245ffd5b5f60028204905060018216806200017757607f821691505b6020821081036200018d576200018c62000132565b5b50919050565b5f819050815f5260205f209050919050565b5f6020601f8301049050919050565b5f82821b905092915050565b5f60088302620001f17fffffffffffffffffffffffffffffffffffffffffffffffffffffffffffffffff82620001b4565b620001fd8683620001b4565b95508019841693508086168417925050509392505050565b5f819050919050565b5f819050919050565b5f62000247620002416200023b8462000215565b6200021e565b62000215565b9050919050565b5f819050919050565b620002628362000227565b6200027a62000271826200024e565b848454620001c0565b825550505050565b5f90565b6200029062000282565b6200029d81848462000257565b505050565b5b81811015620002c457620002b85f8262000286565b600181019050620002a3565b5050565b601f8211156200031357620002dd8162000193565b620002e884620001a5565b81016020851015620002f8578190505b620003106200030785620001a5565b830182620002a2565b50505b505050565b5f82821c905092915050565b5f620003355f198460080262000318565b1980831691505092915050565b5f6200034f838362000324565b9150826002028217905092915050565b6200036a82620000fb565b67ffffffffffffffff81111562000386576200038562000105565b5b6200039282546200015f565b6200039f828285620002c8565b5f60209050601f831160018114620003d5575f8415620003c0578287015190505b620003cc858262000342565b8655506200043b565b601f198416620003e58662000193565b5f5b828110156200040e57848901518255600182019150602085019450602081019050620003e7565b868310156200042e57848901516200042a601f89168262000324565b8355505b6001600288020188555050505b505050505050565b610bc680620004515f395ff3fe608060405234801561000f575f80fd5b5060043610610091575f3560e01c806376809ce31161006457806376809ce31461013157806395d89b411461014f578063a9059cbb1461016d578063dd62ed3e1461019d578063e3d670d7146101cd57610091565b806306fdde0314610095578063095ea7b3146100b357806363b0545f146100e357806372dd529b14610113575b5f80fd5b61009d6101fd565b6040516100aa919061089d565b60405180910390f35b6100cd60048036038101906100c8919061094e565b610288565b6040516100da91906109a6565b60405180910390f35b6100fd60048036038101906100f891906109bf565b610375565b60405161010a91906109a6565b60405180910390f35b61011b6105e7565b6040516101289190610a1e565b60405180910390f35b6101396105ed565b6040516101469190610a1e565b60405180910390f35b6101576105f3565b604051610164919061089d565b60405180910390f35b6101876004803603810190610182919061094e565b61067f565b60405161019491906109a6565b60405180910390f35b6101b760048036038101906101b29190610a37565b6107de565b6040516101c49190610a1e565b60405180910390f35b6101e760048036038101906101e29190610a75565b6107fe565b6040516101f49190610a1e565b60405180910390f35b5f805461020990610acd565b80601f016020809104026020016040519081016040528092919081815260200182805461023590610acd565b80156102805780601f1061025757610100808354040283529160200191610280565b820191905f5260205f20905b81548152906001019060200180831161026357829003601f168201915b505050505081565b5f8160055f3373ffffffffffffffffffffffffffffffffffffffff1673ffffffffffffffffffffffffffffffffffffffff1681526020019081526020015f205f8573ffffffffffffffffffffffffffffffffffffffff1673ffffffffffffffffffffffffffffffffffffffff1681526020019081526020015f20819055508273ffffffffffffffffffffffffffffffffffffffff163373ffffffffffffffffffffffffffffffffffffffff167f6e11fb1b7f119e3f2fa29896ef5fdf8b8a2d0d4df6fe90ba8668e7d8b2ffa25e846040516103639190610a1e565b60405180910390a36001905092915050565b5f60045f8573ffffffffffffffffffffffffffffffffffffffff1673ffffffffffffffffffffffffffffffffffffffff1681526020019081526020015f20548211156103bf575f80fd5b60055f8573ffffffffffffffffffffffffffffffffffffffff1673ffffffffffffffffffffffffffffffffffffffff1681526020019081526020015f205f3373ffffffffffffffffffffffffffffffffffffffff1673ffffffffffffffffffffffffffffffffffffffff1681526020019081526020015f2054821115610443575f80fd5b8160045f8673ffffffffffffffffffffffffffffffffffffffff1673ffffffffffffffffffffffffffffffffffffffff1681526020019081526020015f205f82825461048f9190610b2a565b925050819055508160045f8573ffffffffffffffffffffffffffffffffffffffff1673ffffffffffffffffffffffffffffffffffffffff1681526020019081526020015f205f8282546104e29190610b5d565b925050819055508160055f8673ffffffffffffffffffffffffffffffffffffffff1673ffffffffffffffffffffffffffffffffffffffff1681526020019081526020015f205f3373ffffffffffffffffffffffffffffffffffffffff1673ffffffffffffffffffffffffffffffffffffffff1681526020019081526020015f205f8282546105709190610b2a565b925050819055508273ffffffffffffffffffffffffffffffffffffffff168473ffffffffffffffffffffffffffffffffffffffff167fddf252ad1be2c89b69c2b068fc378daa952ba7f163c4a11628f55a4df523b3ef846040516105d49190610a1e565b60405180910390a3600190509392505050565b60025481565b60035481565b6001805461060090610acd565b80601f016020809104026020016040519081016040528092919081815260200182805461062c90610acd565b80156106775780601f1061064e57610100808354040283529160200191610677565b820191905f5260205f20905b81548152906001019060200180831161065a57829003601f168201915b505050505081565b5f8160045f3373ffffffffffffffffffffffffffffffffffffffff1673ffffffffffffffffffffffffffffffffffffffff1681526020019081526020015f205410156106c9575f80fd5b8160045f3373ffffffffffffffffffffffffffffffffffffffff1673ffffffffffffffffffffffffffffffffffffffff1681526020019081526020015f205f8282546107159190610b2a565b925050819055508160045f8573ffffffffffffffffffffffffffffffffffffffff1673ffffffffffffffffffffffffffffffffffffffff1681526020019081526020015f205f8282546107689190610b5d565b925050819055508273ffffffffffffffffffffffffffffffffffffffff163373ffffffffffffffffffffffffffffffffffffffff167fddf252ad1be2c89b69c2b068fc378daa952ba7f163c4a11628f55a4df523b3ef846040516107cc9190610a1e565b60405180910390a36001905092915050565b6005602052815f5260405f20602052805f5260405f205f91509150505481565b6004602052805f5260405f205f915090505481565b5f81519050919050565b5f82825260208201905092915050565b5f5b8381101561084a57808201518184015260208101905061082f565b5f8484015250505050565b5f601f19601f8301169050919050565b5f61086f82610813565b610879818561081d565b935061088981856020860161082d565b61089281610855565b840191505092915050565b5f6020820190508181035f8301526108b58184610865565b905092915050565b5f80fd5b5f73ffffffffffffffffffffffffffffffffffffffff82169050919050565b5f6108ea826108c1565b9050919050565b6108fa816108e0565b8114610904575f80fd5b50565b5f81359050610915816108f1565b92915050565b5f819050919050565b61092d8161091b565b8114610937575f80fd5b50565b5f8135905061094881610924565b92915050565b5f8060408385031215610964576109636108bd565b5b5f61097185828601610907565b92505060206109828582860161093a565b9150509250929050565b5f8115159050919050565b6109a08161098c565b82525050565b5f6020820190506109b95f830184610997565b92915050565b5f805f606084860312156109d6576109d56108bd565b5b5f6109e386828701610907565b93505060206109f486828701610907565b9250506040610a058682870161093a565b9150509250925092565b610a188161091b565b82525050565b5f602082019050610a315f830184610a0f565b92915050565b5f8060408385031215610a4d57610a4c6108bd565b5b5f610a5a85828601610907565b9250506020610a6b85828601610907565b9150509250929050565b5f60208284031215610a8a57610a896108bd565b5b5f610a9784828501610907565b91505092915050565b7f4e487b71000000000000000000000000000000000000000000000000000000005f52602260045260245ffd5b5f6002820490506001821680610ae457607f821691505b602082108103610af757610af6610aa0565b5b50919050565b7f4e487b71000000000000000000000000000000000000000000000000000000005f52601160045260245ffd5b5f610b348261091b565b9150610b3f8361091b565b9250828203905081811115610b5757610b56610afd565b5b92915050565b5f610b678261091b565b9150610b728361091b565b9250828201905080821115610b8a57610b89610afd565b5b9291505056fea26469706673582212202b5e2bde32c7abbd687aa00ea22135517d82dc2de388d58551465fb4f0f4045f64736f6c63430008150033",
  "immutableReferences": {},
  "source": "pragma solidity >= 0.4.22 < 0.9.0;\r\n\r\ncontract Dummy {\r\n\r\n\tstring public name = \"Dummy Token\";\r\n\tstring public symbol = \"dum token\";\r\n\tuint public totalsupply = 1000000000000000000000000;\r\n\tuint public decimal = 18;\r\n\r\n\tevent Transfer(\r\n\t\taddress indexed _from,\r\n\t\taddress indexed _to,\r\n\t\tuint _value\r\n\t);\r\n\r\n\tevent Approve(\r\n\t\taddress indexed _owner,\r\n\t\taddress indexed _spender,\r\n\t\tuint _value\r\n\t);\r\n\r\n\tmapping( address => uint256 ) public balance;\r\n\tmapping( address => mapping( address => uint256 ) ) public allowance;\r\n\r\n\tconstructor() public {\r\n\t\tbalance [msg.sender] = totalsupply;\r\n\t}\r\n\r\n\tfunction transfer (address _to, uint256 _value) public returns(bool success) {\r\n\t\trequire(balance[msg.sender] >= _value);\r\n\t\tbalance[msg.sender] -= _value;\r\n\t\tbalance[_to] += _value;\r\n\t\temit Transfer(msg.sender, _to, _value);\r\n\t\treturn true;\r\n\t}\r\n\r\n\tfunction approve (address _spender, uint256 _value) public returns(bool success) {\r\n\t\tallowance[msg.sender][_spender] = _value;\r\n\t\temit Approve(msg.sender, _spender, _value);\r\n\t\treturn true;\r\n\t}\r\n\r\n\tfunction transferfrom (address _from, address _to, uint256 _value) public returns(bool success) {\r\n\t\trequire(_value <= balance[_from]);\r\n\t\trequire(_value <= allowance[_from][msg.sender]);\r\n\t\tbalance[_from] -= _value;\r\n\t\tbalance[_to] += _value;\r\n\t\tallowance[_from][msg.sender] -= _value;\r\n\t\temit Transfer (_from, _to, _value);\r\n\t\treturn true;\r\n\t}\r\n\r\n}",
  "sourcePath": "D:\\repo\\dapp\\staking_app_\\src\\contracts\\Dummy_token.sol",
  "compiler": {
    "name": "solc",
    "version": "0.8.21+commit.d9974bed.Emscripten.clang"
  },
  "schemaVersion": "3.4.16",
  "updatedAt": "2023-10-12T16:35:53.170Z",
  "networkType": "ethereum",
  "devdoc": {
    "kind": "dev",
    "methods": {},
    "version": 1
  },
  "userdoc": {
    "kind": "user",
    "methods": {},
    "version": 1
  }
}