{
  "contractName": "staking_dapp",
  "abi": [
    {
      "inputs": [
        {
          "internalType": "contract Dummy",
          "name": "_dummytoken",
          "type": "address"
        },
        {
          "internalType": "contract Tether",
          "name": "_tethertoken",
          "type": "address"
        }
      ],
      "stateMutability": "nonpayable",
      "type": "constructor"
    },
    {
      "inputs": [],
      "name": "dummy_token",
      "outputs": [
        {
          "internalType": "contract Dummy",
          "name": "",
          "type": "address"
        }
      ],
      "stateMutability": "view",
      "type": "function",
      "constant": true
    },
    {
      "inputs": [
        {
          "internalType": "address",
          "name": "",
          "type": "address"
        }
      ],
      "name": "hasstaked",
      "outputs": [
        {
          "internalType": "bool",
          "name": "",
          "type": "bool"
        }
      ],
      "stateMutability": "view",
      "type": "function",
      "constant": true
    },
    {
      "inputs": [
        {
          "internalType": "address",
          "name": "",
          "type": "address"
        }
      ],
      "name": "isstaking",
      "outputs": [
        {
          "internalType": "bool",
          "name": "",
          "type": "bool"
        }
      ],
      "stateMutability": "view",
      "type": "function",
      "constant": true
    },
    {
      "inputs": [],
      "name": "name",
      "outputs": [
        {
          "internalType": "string",
          "name": "",
          "type": "string"
        }
      ],
      "stateMutability": "view",
      "type": "function",
      "constant": true
    },
    {
      "inputs": [],
      "name": "owner",
      "outputs": [
        {
          "internalType": "address",
          "name": "",
          "type": "address"
        }
      ],
      "stateMutability": "view",
      "type": "function",
      "constant": true
    },
    {
      "inputs": [
        {
          "internalType": "uint256",
          "name": "",
          "type": "uint256"
        }
      ],
      "name": "stakers",
      "outputs": [
        {
          "internalType": "address",
          "name": "",
          "type": "address"
        }
      ],
      "stateMutability": "view",
      "type": "function",
      "constant": true
    },
    {
      "inputs": [
        {
          "internalType": "address",
          "name": "",
          "type": "address"
        }
      ],
      "name": "stakingbalance",
      "outputs": [
        {
          "internalType": "uint256",
          "name": "",
          "type": "uint256"
        }
      ],
      "stateMutability": "view",
      "type": "function",
      "constant": true
    },
    {
      "inputs": [],
      "name": "tether_token",
      "outputs": [
        {
          "internalType": "contract Tether",
          "name": "",
          "type": "address"
        }
      ],
      "stateMutability": "view",
      "type": "function",
      "constant": true
    },
    {
      "inputs": [
        {
          "internalType": "uint256",
          "name": "_amount",
          "type": "uint256"
        }
      ],
      "name": "staketoken",
      "outputs": [],
      "stateMutability": "nonpayable",
      "type": "function"
    },
    {
      "inputs": [],
      "name": "unstaketoken",
      "outputs": [],
      "stateMutability": "nonpayable",
      "type": "function"
    },
    {
      "inputs": [],
      "name": "issuedummy",
      "outputs": [],
      "stateMutability": "nonpayable",
      "type": "function"
    }
  ],
  "bytecode": "0x60806040526040518060400160405280600c81526020017f7374616b696e67206461707000000000000000000000000000000000000000008152505f9081620000499190620003a8565b5034801562000056575f80fd5b50604051620015c3380380620015c383398181016040528101906200007c919062000546565b8160025f6101000a81548173ffffffffffffffffffffffffffffffffffffffff021916908373ffffffffffffffffffffffffffffffffffffffff1602179055508060035f6101000a81548173ffffffffffffffffffffffffffffffffffffffff021916908373ffffffffffffffffffffffffffffffffffffffff1602179055503360015f6101000a81548173ffffffffffffffffffffffffffffffffffffffff021916908373ffffffffffffffffffffffffffffffffffffffff16021790555050506200058b565b5f81519050919050565b7f4e487b71000000000000000000000000000000000000000000000000000000005f52604160045260245ffd5b7f4e487b71000000000000000000000000000000000000000000000000000000005f52602260045260245ffd5b5f6002820490506001821680620001c057607f821691505b602082108103620001d657620001d56200017b565b5b50919050565b5f819050815f5260205f209050919050565b5f6020601f8301049050919050565b5f82821b905092915050565b5f600883026200023a7fffffffffffffffffffffffffffffffffffffffffffffffffffffffffffffffff82620001fd565b620002468683620001fd565b95508019841693508086168417925050509392505050565b5f819050919050565b5f819050919050565b5f620002906200028a62000284846200025e565b62000267565b6200025e565b9050919050565b5f819050919050565b620002ab8362000270565b620002c3620002ba8262000297565b84845462000209565b825550505050565b5f90565b620002d9620002cb565b620002e6818484620002a0565b505050565b5b818110156200030d57620003015f82620002cf565b600181019050620002ec565b5050565b601f8211156200035c576200032681620001dc565b6200033184620001ee565b8101602085101562000341578190505b620003596200035085620001ee565b830182620002eb565b50505b505050565b5f82821c905092915050565b5f6200037e5f198460080262000361565b1980831691505092915050565b5f6200039883836200036d565b9150826002028217905092915050565b620003b38262000144565b67ffffffffffffffff811115620003cf57620003ce6200014e565b5b620003db8254620001a8565b620003e882828562000311565b5f60209050601f8311600181146200041e575f841562000409578287015190505b6200041585826200038b565b86555062000484565b601f1984166200042e86620001dc565b5f5b82811015620004575784890151825560018201915060208501945060208101905062000430565b8683101562000477578489015162000473601f8916826200036d565b8355505b6001600288020188555050505b505050505050565b5f80fd5b5f73ffffffffffffffffffffffffffffffffffffffff82169050919050565b5f620004bb8262000490565b9050919050565b5f620004ce82620004af565b9050919050565b620004e081620004c2565b8114620004eb575f80fd5b50565b5f81519050620004fe81620004d5565b92915050565b5f6200051082620004af565b9050919050565b620005228162000504565b81146200052d575f80fd5b50565b5f81519050620005408162000517565b92915050565b5f80604083850312156200055f576200055e6200048c565b5b5f6200056e85828601620004ee565b9250506020620005818582860162000530565b9150509250929050565b61102a80620005995f395ff3fe608060405234801561000f575f80fd5b50600436106100a7575f3560e01c806389c95e981161006f57806389c95e98146101295780638da5cb5b1461014757806390332cd714610165578063af3fb4b114610195578063f9075fc6146101c5578063fd5e6dd1146101e3576100a7565b806306fdde03146100ab5780632f38bf21146100c95780633d9f37cc146100e55780634749daaa146100ef5780635b06e61c1461011f575b5f80fd5b6100b3610213565b6040516100c09190610a7d565b60405180910390f35b6100e360048036038101906100de9190610ad4565b61029e565b005b6100ed610565565b005b61010960048036038101906101049190610b59565b610741565b6040516101169190610b93565b60405180910390f35b610127610756565b005b61013161090f565b60405161013e9190610c07565b60405180910390f35b61014f610934565b60405161015c9190610c2f565b60405180910390f35b61017f600480360381019061017a9190610b59565b610959565b60405161018c9190610c62565b60405180910390f35b6101af60048036038101906101aa9190610b59565b610976565b6040516101bc9190610c62565b60405180910390f35b6101cd610993565b6040516101da9190610c9b565b60405180910390f35b6101fd60048036038101906101f89190610ad4565b6109b8565b60405161020a9190610c2f565b60405180910390f35b5f805461021f90610ce1565b80601f016020809104026020016040519081016040528092919081815260200182805461024b90610ce1565b80156102965780601f1061026d57610100808354040283529160200191610296565b820191905f5260205f20905b81548152906001019060200180831161027957829003601f168201915b505050505081565b5f81116102e0576040517f08c379a00000000000000000000000000000000000000000000000000000000081526004016102d790610d5b565b60405180910390fd5b60035f9054906101000a900473ffffffffffffffffffffffffffffffffffffffff1673ffffffffffffffffffffffffffffffffffffffff166363b0545f3330846040518463ffffffff1660e01b815260040161033e93929190610d79565b6020604051808303815f875af115801561035a573d5f803e3d5ffd5b505050506040513d601f19601f8201168201806040525081019061037e9190610dd8565b508060055f3373ffffffffffffffffffffffffffffffffffffffff1673ffffffffffffffffffffffffffffffffffffffff1681526020019081526020015f20546103c89190610e30565b60055f3373ffffffffffffffffffffffffffffffffffffffff1673ffffffffffffffffffffffffffffffffffffffff1681526020019081526020015f208190555060065f3373ffffffffffffffffffffffffffffffffffffffff1673ffffffffffffffffffffffffffffffffffffffff1681526020019081526020015f205f9054906101000a900460ff166104b857600433908060018154018082558091505060019003905f5260205f20015f9091909190916101000a81548173ffffffffffffffffffffffffffffffffffffffff021916908373ffffffffffffffffffffffffffffffffffffffff1602179055505b600160075f3373ffffffffffffffffffffffffffffffffffffffff1673ffffffffffffffffffffffffffffffffffffffff1681526020019081526020015f205f6101000a81548160ff021916908315150217905550600160065f3373ffffffffffffffffffffffffffffffffffffffff1673ffffffffffffffffffffffffffffffffffffffff1681526020019081526020015f205f6101000a81548160ff02191690831515021790555050565b60015f9054906101000a900473ffffffffffffffffffffffffffffffffffffffff1673ffffffffffffffffffffffffffffffffffffffff163373ffffffffffffffffffffffffffffffffffffffff16146105f4576040517f08c379a00000000000000000000000000000000000000000000000000000000081526004016105eb90610ed3565b60405180910390fd5b5f5b60048054905081101561073e575f6004828154811061061857610617610ef1565b5b905f5260205f20015f9054906101000a900473ffffffffffffffffffffffffffffffffffffffff1690505f60055f8373ffffffffffffffffffffffffffffffffffffffff1673ffffffffffffffffffffffffffffffffffffffff1681526020019081526020015f205490505f8111156107295760025f9054906101000a900473ffffffffffffffffffffffffffffffffffffffff1673ffffffffffffffffffffffffffffffffffffffff1663a9059cbb83836040518363ffffffff1660e01b81526004016106e7929190610f1e565b6020604051808303815f875af1158015610703573d5f803e3d5ffd5b505050506040513d601f19601f820116820180604052508101906107279190610dd8565b505b5050808061073690610f45565b9150506105f6565b50565b6005602052805f5260405f205f915090505481565b5f60055f3373ffffffffffffffffffffffffffffffffffffffff1673ffffffffffffffffffffffffffffffffffffffff1681526020019081526020015f205490505f81116107d9576040517f08c379a00000000000000000000000000000000000000000000000000000000081526004016107d090610fd6565b60405180910390fd5b60035f9054906101000a900473ffffffffffffffffffffffffffffffffffffffff1673ffffffffffffffffffffffffffffffffffffffff1663a9059cbb33836040518363ffffffff1660e01b8152600401610835929190610f1e565b6020604051808303815f875af1158015610851573d5f803e3d5ffd5b505050506040513d601f19601f820116820180604052508101906108759190610dd8565b505f60055f3373ffffffffffffffffffffffffffffffffffffffff1673ffffffffffffffffffffffffffffffffffffffff1681526020019081526020015f20819055505f60075f3373ffffffffffffffffffffffffffffffffffffffff1673ffffffffffffffffffffffffffffffffffffffff1681526020019081526020015f205f6101000a81548160ff02191690831515021790555050565b60035f9054906101000a900473ffffffffffffffffffffffffffffffffffffffff1681565b60015f9054906101000a900473ffffffffffffffffffffffffffffffffffffffff1681565b6006602052805f5260405f205f915054906101000a900460ff1681565b6007602052805f5260405f205f915054906101000a900460ff1681565b60025f9054906101000a900473ffffffffffffffffffffffffffffffffffffffff1681565b600481815481106109c7575f80fd5b905f5260205f20015f915054906101000a900473ffffffffffffffffffffffffffffffffffffffff1681565b5f81519050919050565b5f82825260208201905092915050565b5f5b83811015610a2a578082015181840152602081019050610a0f565b5f8484015250505050565b5f601f19601f8301169050919050565b5f610a4f826109f3565b610a5981856109fd565b9350610a69818560208601610a0d565b610a7281610a35565b840191505092915050565b5f6020820190508181035f830152610a958184610a45565b905092915050565b5f80fd5b5f819050919050565b610ab381610aa1565b8114610abd575f80fd5b50565b5f81359050610ace81610aaa565b92915050565b5f60208284031215610ae957610ae8610a9d565b5b5f610af684828501610ac0565b91505092915050565b5f73ffffffffffffffffffffffffffffffffffffffff82169050919050565b5f610b2882610aff565b9050919050565b610b3881610b1e565b8114610b42575f80fd5b50565b5f81359050610b5381610b2f565b92915050565b5f60208284031215610b6e57610b6d610a9d565b5b5f610b7b84828501610b45565b91505092915050565b610b8d81610aa1565b82525050565b5f602082019050610ba65f830184610b84565b92915050565b5f819050919050565b5f610bcf610bca610bc584610aff565b610bac565b610aff565b9050919050565b5f610be082610bb5565b9050919050565b5f610bf182610bd6565b9050919050565b610c0181610be7565b82525050565b5f602082019050610c1a5f830184610bf8565b92915050565b610c2981610b1e565b82525050565b5f602082019050610c425f830184610c20565b92915050565b5f8115159050919050565b610c5c81610c48565b82525050565b5f602082019050610c755f830184610c53565b92915050565b5f610c8582610bd6565b9050919050565b610c9581610c7b565b82525050565b5f602082019050610cae5f830184610c8c565b92915050565b7f4e487b71000000000000000000000000000000000000000000000000000000005f52602260045260245ffd5b5f6002820490506001821680610cf857607f821691505b602082108103610d0b57610d0a610cb4565b5b50919050565b7f616d6f756e742063616e206e6f74206265207a65726f206f72206c65737300005f82015250565b5f610d45601e836109fd565b9150610d5082610d11565b602082019050919050565b5f6020820190508181035f830152610d7281610d39565b9050919050565b5f606082019050610d8c5f830186610c20565b610d996020830185610c20565b610da66040830184610b84565b949350505050565b610db781610c48565b8114610dc1575f80fd5b50565b5f81519050610dd281610dae565b92915050565b5f60208284031215610ded57610dec610a9d565b5b5f610dfa84828501610dc4565b91505092915050565b7f4e487b71000000000000000000000000000000000000000000000000000000005f52601160045260245ffd5b5f610e3a82610aa1565b9150610e4583610aa1565b9250828201905080821115610e5d57610e5c610e03565b5b92915050565b7f63616c6c6572206d75737420626520746865206f776e657220666f72207468695f8201527f732066756e6374696f6e00000000000000000000000000000000000000000000602082015250565b5f610ebd602a836109fd565b9150610ec882610e63565b604082019050919050565b5f6020820190508181035f830152610eea81610eb1565b9050919050565b7f4e487b71000000000000000000000000000000000000000000000000000000005f52603260045260245ffd5b5f604082019050610f315f830185610c20565b610f3e6020830184610b84565b9392505050565b5f610f4f82610aa1565b91507fffffffffffffffffffffffffffffffffffffffffffffffffffffffffffffffff8203610f8157610f80610e03565b5b600182019050919050565b7f7374616b696e672062616c616e6365206973207a65726f0000000000000000005f82015250565b5f610fc06017836109fd565b9150610fcb82610f8c565b602082019050919050565b5f6020820190508181035f830152610fed81610fb4565b905091905056fea26469706673582212206cca017dd55c14253581f208d8f8ed320c9d6ca08283a58a18bc68f65bee450d64736f6c63430008150033",
  "immutableReferences": {},
  "source": "pragma solidity >= 0.4.22 < 0.9.0;\r\nimport \"./Dummy_token.sol\";\r\nimport \"./Tether.sol\";\r\n\r\ncontract staking_dapp {\r\n\r\n\tstring public name = \"staking dapp\";\r\n\taddress public owner;\r\n\tDummy public dummy_token;\r\n\tTether public tether_token;\r\n\r\n\taddress[] public stakers;\r\n\tmapping(address => uint) public stakingbalance;\r\n\tmapping(address => bool) public hasstaked;\r\n\tmapping(address => bool) public isstaking;\r\n\r\n\tconstructor (Dummy _dummytoken, Tether _tethertoken) public {\r\n\t\r\n\t\tdummy_token = _dummytoken;\r\n\t\ttether_token = _tethertoken;\r\n\t\towner = msg.sender;\r\n\r\n\t}\r\n\r\n\tfunction staketoken(uint _amount) public {\r\n\t\r\n\t\trequire(_amount > 0, \"amount can not be zero or less\");\r\n\t\ttether_token.transferfrom(msg.sender, address(this), _amount);\r\n\r\n\t\tstakingbalance[msg.sender] = stakingbalance[msg.sender] + _amount;\r\n\r\n\t\tif(!hasstaked[msg.sender]) {\r\n\t\t\tstakers.push(msg.sender);\r\n\t\t}\r\n\r\n\t\tisstaking[msg.sender] = true;\r\n\t\thasstaked[msg.sender] = true;\r\n\r\n\t}\r\n\r\n\tfunction unstaketoken() public {\r\n\t\t\r\n\t\tuint balance = stakingbalance[msg.sender];\r\n\t\trequire(balance > 0, \"staking balance is zero\");\r\n\t\ttether_token.transfer(msg.sender, balance);\r\n\t\tstakingbalance[msg.sender] = 0;\r\n\t\tisstaking[msg.sender] = false;\r\n\r\n\t}\r\n\r\n\tfunction issuedummy() public {\r\n\t\r\n\t\trequire(msg.sender == owner, \"caller must be the owner for this function\");\r\n\r\n\t\tfor (uint i = 0; i < stakers.length; i++) {\r\n\t\t\taddress recipient = stakers[i];\r\n\t\t\tuint balance = stakingbalance[recipient];\r\n\t\t\tif (balance > 0) {\r\n\t\t\t\tdummy_token.transfer(recipient, balance);\r\n\t\t\t}\r\n\t\t}\r\n\t}\r\n\r\n}",
  "sourcePath": "D:\\repo\\dapp\\staking_app_\\src\\contracts\\staking_dapp.sol",
  "compiler": {
    "name": "solc",
    "version": "0.8.21+commit.d9974bed.Emscripten.clang"
  },
  "schemaVersion": "3.4.16",
  "updatedAt": "2023-10-12T16:35:53.184Z",
  "networkType": "ethereum",
  "devdoc": {
    "kind": "dev",
    "methods": {},
    "version": 1
  },
  "userdoc": {
    "kind": "user",
    "methods": {},
    "version": 1
  }
}